{
  "contractName": "Box",
  "abi": [
    {
      "inputs": [
        {
          "internalType": "contract Auth",
          "name": "_auth",
          "type": "address"
        }
      ],
      "stateMutability": "nonpayable",
      "type": "constructor"
    },
    {
      "anonymous": false,
      "inputs": [
        {
          "indexed": false,
          "internalType": "uint256",
          "name": "newValue",
          "type": "uint256"
        }
      ],
      "name": "valueChage",
      "type": "event"
    },
    {
      "inputs": [
        {
          "internalType": "uint256",
          "name": "newValue",
          "type": "uint256"
        }
      ],
      "name": "store",
      "outputs": [],
      "stateMutability": "nonpayable",
      "type": "function"
    },
    {
      "inputs": [],
      "name": "retrive",
      "outputs": [
        {
          "internalType": "uint256",
          "name": "",
          "type": "uint256"
        }
      ],
      "stateMutability": "view",
      "type": "function",
      "constant": true
    }
  ],
  "bytecode": "0x608060405234801561001057600080fd5b506040516102e83803806102e88339818101604052602081101561003357600080fd5b810190808051906020019092919050505080600160006101000a81548173ffffffffffffffffffffffffffffffffffffffff021916908373ffffffffffffffffffffffffffffffffffffffff16021790555050610253806100956000396000f3fe608060405234801561001057600080fd5b50600436106100365760003560e01c80636057361d1461003b578063a6b7fc5b14610069575b600080fd5b6100676004803603602081101561005157600080fd5b8101908080359060200190929190505050610087565b005b610071610214565b6040518082815260200191505060405180910390f35b600160009054906101000a900473ffffffffffffffffffffffffffffffffffffffff1673ffffffffffffffffffffffffffffffffffffffff166324d7806c336040518263ffffffff1660e01b8152600401808273ffffffffffffffffffffffffffffffffffffffff1673ffffffffffffffffffffffffffffffffffffffff16815260200191505060206040518083038186803b15801561012657600080fd5b505afa15801561013a573d6000803e3d6000fd5b505050506040513d602081101561015057600080fd5b81019080805190602001909291905050506101d3576040517f08c379a000000000000000000000000000000000000000000000000000000000815260040180806020018281038252600c8152602001807f556e617574686f72697a6564000000000000000000000000000000000000000081525060200191505060405180910390fd5b806000819055507f17fd2a0f4368035d68fd9cd67618b4d48aa909e1eb82af988e1cb570997ab2b4816040518082815260200191505060405180910390a150565b6000805490509056fea264697066735822122090af5d4f37ee7bfc047ca1148b4a8a6b3c5bd38dd9a4a6ad95166a9bd7cdad3564736f6c63430006000033",
  "source": "pragma solidity ^0.6.0;\nimport \"./access-control/Auth.sol\";\n\ncontract Box {\n    uint256 private value;\n    Auth private auth;\n    \n    constructor(Auth _auth) public {\n        auth = _auth;\n    }\n\n    event valueChage(uint256 newValue);\n\n    function store(uint256 newValue) public {\n        require(auth.isAdmin(msg.sender),\"Unauthorized\");\n        value = newValue;\n        emit valueChage(newValue);\n    }\n\n    function retrive() public view returns (uint256) {\n        return value;\n    }\n}\n",
  "sourcePath": "/Users/cash/Documents/myProj/smart_contract/contracts/Box.sol",
  "compiler": {
    "name": "solc",
    "version": "0.6.0+commit.26b70077.Emscripten.clang"
  },
  "schemaVersion": "3.4.5",
  "updatedAt": "2022-03-06T12:49:45.725Z",
  "networkType": "ethereum",
  "devdoc": {
    "methods": {}
  },
  "userdoc": {
    "methods": {}
  }
}